:040000000C945E00FE
:100004000C9400000C9400000C9400000C9400006C
:100014000C9400000C9400000C9400000C9400005C
:100024000C9400000C9400000C9400000C9400004C
:100034000C944C010C9400000C9400000C940000EF
:100044000C9400000C9400000C9400000C94030128
:100054000C9400000C9427010C9400000C940000F4
:100064000C9400000C9400000C9400000C9400000C
:100074000C9400000C9400001027E80364000A00AC
:10008400010000100001100001000000040802003B
:10009400010001002D4E414E00494E46000004006F
:1000A4000A008E0001000802920001000902940077
:1000B4000100150296000000F894EE27EFBBF1E072
:1000C400F5BFE5BFF8E1A895A4B7A77FA4BFF09357
:1000D4006000E09360008DE0A2E0BB27ED938A9579
:1000E400E9F780E094E0A0E0B1E0ED930197E9F74F
:1000F400E2EAF0E085919591009761F0A591B591C0
:1001040005901590BF01F00105900D920197E1F75C
:10011400FB01F0CFE0E0EEBBEFEFEDBFE4E0EEBFBC
:10012400C0E0D2E00C947801E0E8E0936100E0E004
:10013400E0936100EFE0E1B9EFEFE2B9EFE0E4B999
:10014400E0E0E5B9EFEFE7B9E0E0E8B9E0E2EBB908
:10015400E0E5EAB9E0E0E4BDE5BDE6BDE7BDE8BD44
:10016400E0938000EDE0E0938100E0E0E09385001F
:10017400E0938400E0938700E0938600E1E0E0935D
:100184008900E6E8E0938800E0E0E0938B00E093E8
:100194008A00E093B600E093B000E093B100E093EE
:1001A400B200E093B300E093B400E0936900EDBBC8
:1001B400E0936800E0936E00E2E0E0936F00E0E01B
:1001C400E0937000E093C000E8EDE093C100E6E046
:1001D400E093C200E0E0E093C500E1E8E093C400EE
:1001E400E0E0E093C900E0E8E0BFE0E0E0937B00FA
:1001F400E0937F00E5B7E068E5BFE5B7E068E5BFF9
:100204000895EA93FA93EFB7EA931A930A93109135
:10021400C0000091C600E12FEC7181F4E52D5394E8
:10022400F0E0E050FE4F0083E8E0E51509F45524C2
:100234007394E8E0E71511F47724F09A0991199181
:10024400E991EFBFF991E9911895AA93EA93FA938A
:10025400EFB7EA93E0911402E030B1F0E150E0939B
:100264001402E0911302EF5FE0931302E150F0E017
:10027400E65FFD4FE081E093C600A0911302A83031
:1002840019F4E0E0E0931302E991EFBFF991E991E9
:10029400A99118950A921A92FA926A937A938A9378
:1002A4009A93AA93BA93EA93FA93EFB7EA93E62D53
:1002B400F0E03196DF01E2E3F0E00E949A026E2E54
:1002C400662029F45E9B02C05E9801C05E9A15D038
:1002D400E991EFBFF991E991B991A9919991899126
:1002E40079916991F9901990099018951DDF789486
:1002F4005E9A8824F19AFFCFFFCF83D09E2EA92D3A
:10030400EFEFB0E0FFEFEA17FB0711F40C940202E1
:10031400F19906C0EFE0E91581F0E91509F00895B7
:10032400E82DF0E03097B9F4BB24AA24A0E0ADD0C6
:10033400A0E0A1D0EFE0E91529F48824F19AAD2DCD
:100344009AD00895E3E0E91510F4F19803C083947A
:10035400A92DA0D055C0E130A0E0FA0719F5E1E0DD
:100364009E1618F0E3E0E91510F4F1981AC0E92D8F
:10037400F0E0E130A0E0FA0719F48394AC2C0FC04C
:10038400E230A0E0FA0721F48394A090080207C0A9
:10039400E330A0E0FA0729F48394A0900902A92D80
:1003A40084D02EC0E230A0E0FA07F9F4E09109020B
:1003B400EA1541F4EFE0E91511F0F19802C00E944A
:1003C4006C0212C0CA1449F4E7E0E91510F4F1987C
:1003D40003C08394A92D72D007C0E0910802EA15E6
:1003E40019F48394A92D6AD00BC0E330A0E0FA0776
:1003F40039F4EFE0E91511F0F19802C00E946C02A3
:1004040008952497EEEFE883EDEFE983EBEFEA83B9
:10041400E7EFEB830E94A8023FEF10E0143030F5C1
:10042400E12FF0E0DE011496AE0FBF1FEC91E2B9AC
:1004340087E08A95F1F7E0B1F0E00E947E020E2F8A
:100444000F3091F00E3009F400E00D3009F401E0B2
:100454000B3009F402E0073009F403E0E12FEE0F5A
:10046400EE0FE00F3E2F02C01F5FD8CFE32F0E9494
:10047400AD0228960895AA931A93E981EF701E2F6E
:10048400E5B1E07FE12BE5B922C0AA93E881E8B9A0
:10049400219608950E947302EF73AE2FE12FE29527
:1004A400E07FEE0FEE0FEA2B11C00E947302EF7C87
:1004B400AE2FE12FE295E07FEA2B08C0AA931A93AE
:1004C400E981EF701E2FEB2DE07FE12BBE2E18810A
:1004D400229608958824AB2D0E944702AA2D0C94DD
:1004E4003D02AA931A93E981E3701E2FEB2D089520
:1004F400F195E195F0400895F595E795F595E79523
:10050400F595E795F595E79508950024112490E174
:10051400AA0FBB1F001C111C0E1A1F0A18F40E0E82
:100524001F1E01C0A1609A9599F7FD01D00108959D
:10053400E894B7FF04C0A095B09511966894F7FDB0
:10054400D7DFE3DFFD010EF4D3DF08953A932A9356
:100554001A930A9308953B812A8119810881089589
:00000001FF
