:060000000C9469000C9451
:1000060000000C9400000C9400000C9400000C946A
:1000160000000C9400000C9400000C9400000C945A
:1000260000000C9400000C9400000C9400000C944A
:1000360099010C9400000C9400000C9400000C94A0
:1000460000000C9400000C9400000C9413010C9416
:1000560000000C9449010C9400000C9400000C94D0
:1000660000000C9400000C9400000C9400000C940A
:1000760000000C9400001027E80364000A00010049
:100086000010000110000100FF000004080002003B
:1000960001000D0A537756657273696F6E3A2564CF
:1000A6002E25640D0A0001002D4E414E00494E4694
:1000B6000000050009008E000100080294000100FE
:1000C6000902960001001502AC000000F894EE2724
:1000D600EFBBF1E0F5BFE5BFF8E1A895A4B7A77FB0
:1000E600A4BFF0936000E09360008DE0A2E0BB2720
:1000F600ED938A95E9F780E094E0A0E0B1E0ED9316
:100106000197E9F7E8EBF0E085919591009761F0AA
:10011600A591B59105901590BF01F00105900D923E
:100126000197E1F7FB01F0CFE0E0EEBBEFEFEDBFAB
:10013600E4E0EEBFC0E0D2E00C94C501E0E8E09355
:100146006100E0E0E0936100EFE0E1B9EFEFE2B9D2
:10015600EFE0E4B9E0E0E5B9EFEFE7B9E0E0E8B9F0
:10016600E0E2EBB9E0E5EAB9E0E0E4BDE5BDE6BD15
:10017600E7BDE8BDE0938000EDE0E09381000E94DA
:100186008B04E0938700E0E0E0938600E1E0E093F3
:100196008900E6E8E0938800E0E0E0938B00E093D6
:1001A6008A00E093B600E093B000E093B100E093DC
:1001B600B200E093B300E093B400E0936900EDBBB6
:1001C600E0936800E0936E00E2E0E0936F00E0E009
:1001D600E0937000E093C000E8EDE093C100E6E034
:1001E600E093C200E0E0E093C500E1E8E093C400DC
:1001F600E0E0E093C900E0E8E0BFE0E0E0937B00E8
:10020600E0937F00A895E8E1E0936000E8E0E093E2
:100216006000E5B7E068E5BFE5B7E068E5BF0895CB
:10022600EA93FA93EFB7EA931A930A931091C000F0
:100236000091C600E12FEC7181F4E52D5394F0E0B6
:10024600E050FE4F0083E8E0E51509F45524739469
:10025600E8E0E71511F47724F09A09911991E991EC
:10026600EFBFF991E99118951A937720F1F3E42DF0
:100276004394F0E0E050FE4F1081E8E0E41509F405
:100286004424F8947A947894E12F54C1AA93EA937B
:10029600FA93EFB7EA93E0911402E030B1F0E1503F
:1002A600E0931402E0911302EF5FE0931302E15032
:1002B600F0E0E65FFD4FE081E093C600A0911302F7
:1002C600A83019F4E0E0E0931302E991EFBFF99149
:1002D600E991A9911895AA93A0911402A830E1F387
:1002E600F894E0911402E03021F4E091C000E0724D
:1002F600C1F4E0911202EF5FE0931202E150F0E0E8
:10030600E65FFD4FA881A083A0911202A83019F4E0
:10031600E0E0E0931202E0911402EF5FE093140232
:1003260003C0E881E093C60078944DC10A921A9200
:10033600FA926A937A938A939A93AA93BA93EA93D0
:10034600FA93EFB7EA93E62DF0E03196DF01E2E3A8
:10035600F0E00E94F2046E2E662029F45E9B02C035
:100366005E9801C05E9A5ED0E991EFBFF991E9917E
:10037600B991A9919991899179916991F990199079
:1003860009901895DBDE78945E9A8824F19AA895F0
:100396007720D9F069DF1E2F1F33A1F4E8E9F0E0DA
:1003A600FA93EA93E1E0F0E060E070E00E9408056D
:1003B600E3E0F0E060E070E00E94080588E06AD2C1
:1003C6002A9603C0A12FAF5F86DF4D991FC0AEE10D
:1003D600B0E00E94C4044D9919C04D9902C0A89579
:1003E600FCCFA0918900A13031F40E948B04E093E8
:1003F6008900E1E609C0E0E0E0938500E09384002F
:10040600E1E0E0938900E6E8E093880000E003304D
:1004160038F45C9A87E08A95F1F75C980F5FF7CF1E
:10042600B6CFFFCF1A93192D87D09E2EEFEFE91581
:1004360011F01F3F09F07EC0F1990CC0EFE0E915FD
:1004460029F48824F19AAD2DB1D074C0EFE0E915F6
:1004560009F070C0E82DF0E03097B9F4BB24AA2467
:10046600A0E0AED0A0E0A2D0EFE0E91529F4882400
:10047600F19AAD2D9BD05EC0E3E0E91510F4F1983A
:1004860003C08394A92DA1D055C0E130A0E0FA079E
:1004960019F5E1E09E1618F0E3E0E91510F4F1987D
:1004A6001AC0E92DF0E0E130A0E0FA0719F48394D0
:1004B600AC2C0FC0E230A0E0FA0721F48394A090A0
:1004C600080207C0E330A0E0FA0729F48394A0905D
:1004D6000902A92D85D02EC0E230A0E0FA07F9F472
:1004E600E0910902EA1541F4EFE0E91511F0F198FF
:1004F60002C00E94910412C0CA1449F4E7E0E9154B
:1005060010F4F19803C08394A92D73D007C0E0912D
:100516000802EA1519F48394A92D6BD00BC0E330B9
:10052600A0E0FA0739F4EFE0E91511F0F19802C0FE
:100536000E949104199108952497EEEFE883EDEF58
:10054600E983EBEFEA83E7EFEB830E940F053FEFCA
:1005560010E0143030F5E12FF0E0DE011496AE0F16
:10056600BF1FEC91E2B987E08A95F1F7E0B1F0E0C0
:100576000E94D6040E2F0F3091F00E3009F400E0E1
:100586000D3009F401E00B3009F402E0073009F4FC
:1005960003E0E12FEE0FEE0FE00F3E2F02C01F5FCC
:1005A600D8CFE32F0E94160528960895AA931A938A
:1005B600E981EF701E2FE5B1E07FE12BE5B922C09E
:1005C600AA93E881E8B9219608950E949804EF73EA
:1005D600AE2FE12FE295E07FEE0FEE0FEA2B11C072
:1005E6000E949804EF7CAE2FE12FE295E07FEA2B84
:1005F60008C0AA931A93E981EF701E2FEB2DE07FB6
:10060600E12BBE2E188122960895BA93AA93AA8149
:100616000E946E01A881B981ED91FD913196FE93FC
:10062600EE9323960895BA93AA9326970E940D05F2
:1006360010E0AC85BD85E0E0F0E0ED93FC93EA893F
:10064600FB893196EA8BFB8B3197E4912E2FE030B4
:1006560011F40C944504E12FE03039F4253211F4FD
:1006660011E002C00E949F040CC1E130A9F42532BA
:1006760019F40E949F0404C112E040E000E02D320C
:1006860011F401E0FEC02B3211F44BE2FAC0203225
:1006960011F440E2F6C002C0E23039F450E013E053
:1006A600203311F40068EDC004C0E33011F00C945F
:1006B6004404203310F02A3308F007C0AAE05A9FFA
:1006C600502DE22FE0535E0FDCC0E22FE33649F4F3
:1006D6000E94A604E889F989A481AA930E94AC0421
:1006E600CFC0E33741F40E94A6040E94B2040E94E0
:1006F60072041E2F0AC0E03761F40E94A6040E940D
:10070600B2040E947E041E2F086002600F7730E05C
:1007160035C0E43611F0E93611F4046002C0E5375D
:1007260031F4ECE7F0E0EE83FF8315E00DC0E83529
:1007360011F4086004C0E83711F00C944304E6E8AD
:10074600F0E0EE83FF8314E002FF14C00E94A604CB
:100756000E94BC04AB85AA233AF4EA85FB850E9475
:10076600D204EA87FB874DE2403011F01F5F01C0DB
:100776000B7F04C00E94A6040E94BC0400FD11C0A9
:10078600151778F407FF08C002FF04C00B7F242F5B
:10079600115001C020E301C020E20E949F04515085
:1007A600EFCF312F01FF17C03030A1F003FF06C095
:1007B600EE81FF812591EE83FF8305C0AE81BF8167
:1007C6002D91AE83BF830E949F04503009F0515093
:1007D6003150EACF4BC020E3EE81FF810E94040531
:1007E600E887F987EE81FF813296EE83FF83E885FD
:1007F600F985AA85BB85AE17BF0750F02F5FA88580
:10080600B985EA85FB85EA1BFB0BEA87FB87EFCFF9
:100816002A3328F003FF02C0295F01C0295D04FDC9
:100826001AC0213320F4A885B985119709F409C0A7
:10083600531710F000FF01C013C020E207FF0BC0E2
:1008460020E3006102FF07C00B7F4A930E94AC04BD
:10085600503009F051500E949F04503009F0515019
:100866003150A885B985129708F0B5CF00FF08C0AA
:10087600503031F05150E0E2EA930E94AC04F8CFD8
:1008860010E0DDCEAC85BD850E9400050E941405F2
:1008960064960895FF92F82E26971A930A93DE011E
:1008A60014960E94CE048D01E0E0EC83ED83EE8386
:1008B600EF83DE0118960E94CE040E940005FA938B
:1008C600EA931A930A93E8E0F3E0FA93EA93DE01D7
:1008D6001896A9DE198108812896FF900895BA9383
:1008E600AA93A991B991EE27FF276D91662311F07E
:1008F6003196FBCF0895BA93AA93AA27BB27E9910D
:10090600F9910590002011F01196FBCFFD01089595
:10091600E0E0E0938500E093840008958824AB2D01
:100926000E94E302AA2D0C94D902AA931A93E98194
:10093600E3701E2FEB2D08952A93AD85BE85EF85B6
:10094600F88909950895E889F9893497E88BF98B30
:100956000895AD85BE85EF85F88909950895A8891E
:10096600B98914960E940005EE83FF83AE81BF818C
:100976000895A889B98914960E940005EA87FB871D
:100986000895109639F088E893E10197F1F7A89554
:100996001197C9F708950024AF0DB01D0895F1957C
:1009A600E195F0400895F595E795F595E795F59568
:1009B600E795F595E79508950024112490E1AA0F8F
:1009C600BB1F001C111C0E1A1F0A18F40E0E1F1E48
:1009D60001C0A1609A9599F7FD01D0010895E894A8
:1009E600B7FF04C0A095B09511966894F7FDD7DFC0
:1009F600E3DFFD010EF4D3DF0895ED91FC9111972D
:100A060008950590F491E02D08957A936A93FA93E8
:100A1600EA9308955A934A933A932A931A930A9318
:100A260008955D814C813B812A8119810881089551
:00000001FF
